{"contracts/Certificate.sol":{"Certificate":{"abi":[{"anonymous":false,"inputs":[{"indexed":false,"internalType":"string","name":"certificateId","type":"string"},{"indexed":false,"internalType":"bytes32","name":"hash","type":"bytes32"}],"name":"CertificateIssued","type":"event"},{"inputs":[{"internalType":"string","name":"","type":"string"}],"name":"certificates","outputs":[{"internalType":"bytes32","name":"","type":"bytes32"}],"stateMutability":"view","type":"function"},{"inputs":[{"internalType":"string","name":"certificateId","type":"string"},{"internalType":"bytes32","name":"hash","type":"bytes32"}],"name":"issueCertificate","outputs":[],"stateMutability":"nonpayable","type":"function"},{"inputs":[{"internalType":"string","name":"certificateId","type":"string"},{"internalType":"bytes32","name":"hash","type":"bytes32"}],"name":"verifyCertificate","outputs":[{"internalType":"bool","name":"","type":"bool"}],"stateMutability":"view","type":"function"}],"evm":{"bytecode":{"linkReferences":{},"object":"608060405234801561001057600080fd5b5061031d806100206000396000f3fe608060405234801561001057600080fd5b50600436106100415760003560e01c806307b86b731461004657806362c985c31461006e5780638f2b91ea14610083575b600080fd5b6100596100543660046101ea565b6100bc565b60405190151581526020015b60405180910390f35b61008161007c3660046101ea565b6100e7565b005b6100ae61009136600461022f565b805160208183018101805160008252928201919093012091525481565b604051908152602001610065565b6000816000846040516100cf9190610290565b90815260200160405180910390205414905092915050565b806000836040516100f89190610290565b9081526020016040518091039020819055507fc1255beb592123a69dbf68648642ecc5fca6e86afc2fd709b8173c8d831b03d2828260405161013b9291906102ac565b60405180910390a15050565b634e487b7160e01b600052604160045260246000fd5b600082601f83011261016e57600080fd5b813567ffffffffffffffff8082111561018957610189610147565b604051601f8301601f19908116603f011681019082821181831017156101b1576101b1610147565b816040528381528660208588010111156101ca57600080fd5b836020870160208301376000602085830101528094505050505092915050565b600080604083850312156101fd57600080fd5b823567ffffffffffffffff81111561021457600080fd5b6102208582860161015d565b95602094909401359450505050565b60006020828403121561024157600080fd5b813567ffffffffffffffff81111561025857600080fd5b6102648482850161015d565b949350505050565b60005b8381101561028757818101518382015260200161026f565b50506000910152565b600082516102a281846020870161026c565b9190910192915050565b60408152600083518060408401526102cb81606085016020880161026c565b602083019390935250601f91909101601f19160160600191905056fea26469706673582212204e192989e8bb41960f1b38f80c110c37401bfb264dfbe632e5733ccc6e53dfd464736f6c63430008130033","opcodes":"PUSH1 0x80 PUSH1 0x40 MSTORE CALLVALUE DUP1 ISZERO PUSH2 0x10 JUMPI PUSH1 0x0 DUP1 REVERT JUMPDEST POP PUSH2 0x31D DUP1 PUSH2 0x20 PUSH1 0x0 CODECOPY PUSH1 0x0 RETURN INVALID PUSH1 0x80 PUSH1 0x40 MSTORE CALLVALUE DUP1 ISZERO PUSH2 0x10 JUMPI PUSH1 0x0 DUP1 REVERT JUMPDEST POP PUSH1 0x4 CALLDATASIZE LT PUSH2 0x41 JUMPI PUSH1 0x0 CALLDATALOAD PUSH1 0xE0 SHR DUP1 PUSH4 0x7B86B73 EQ PUSH2 0x46 JUMPI DUP1 PUSH4 0x62C985C3 EQ PUSH2 0x6E JUMPI DUP1 PUSH4 0x8F2B91EA EQ PUSH2 0x83 JUMPI JUMPDEST PUSH1 0x0 DUP1 REVERT JUMPDEST PUSH2 0x59 PUSH2 0x54 CALLDATASIZE PUSH1 0x4 PUSH2 0x1EA JUMP JUMPDEST PUSH2 0xBC JUMP JUMPDEST PUSH1 0x40 MLOAD SWAP1 ISZERO ISZERO DUP2 MSTORE PUSH1 0x20 ADD JUMPDEST PUSH1 0x40 MLOAD DUP1 SWAP2 SUB SWAP1 RETURN JUMPDEST PUSH2 0x81 PUSH2 0x7C CALLDATASIZE PUSH1 0x4 PUSH2 0x1EA JUMP JUMPDEST PUSH2 0xE7 JUMP JUMPDEST STOP JUMPDEST PUSH2 0xAE PUSH2 0x91 CALLDATASIZE PUSH1 0x4 PUSH2 0x22F JUMP JUMPDEST DUP1 MLOAD PUSH1 0x20 DUP2 DUP4 ADD DUP2 ADD DUP1 MLOAD PUSH1 0x0 DUP3 MSTORE SWAP3 DUP3 ADD SWAP2 SWAP1 SWAP4 ADD KECCAK256 SWAP2 MSTORE SLOAD DUP2 JUMP JUMPDEST PUSH1 0x40 MLOAD SWAP1 DUP2 MSTORE PUSH1 0x20 ADD PUSH2 0x65 JUMP JUMPDEST PUSH1 0x0 DUP2 PUSH1 0x0 DUP5 PUSH1 0x40 MLOAD PUSH2 0xCF SWAP2 SWAP1 PUSH2 0x290 JUMP JUMPDEST SWAP1 DUP2 MSTORE PUSH1 0x20 ADD PUSH1 0x40 MLOAD DUP1 SWAP2 SUB SWAP1 KECCAK256 SLOAD EQ SWAP1 POP SWAP3 SWAP2 POP POP JUMP JUMPDEST DUP1 PUSH1 0x0 DUP4 PUSH1 0x40 MLOAD PUSH2 0xF8 SWAP2 SWAP1 PUSH2 0x290 JUMP JUMPDEST SWAP1 DUP2 MSTORE PUSH1 0x20 ADD PUSH1 0x40 MLOAD DUP1 SWAP2 SUB SWAP1 KECCAK256 DUP2 SWAP1 SSTORE POP PUSH32 0xC1255BEB592123A69DBF68648642ECC5FCA6E86AFC2FD709B8173C8D831B03D2 DUP3 DUP3 PUSH1 0x40 MLOAD PUSH2 0x13B SWAP3 SWAP2 SWAP1 PUSH2 0x2AC JUMP JUMPDEST PUSH1 0x40 MLOAD DUP1 SWAP2 SUB SWAP1 LOG1 POP POP JUMP JUMPDEST PUSH4 0x4E487B71 PUSH1 0xE0 SHL PUSH1 0x0 MSTORE PUSH1 0x41 PUSH1 0x4 MSTORE PUSH1 0x24 PUSH1 0x0 REVERT JUMPDEST PUSH1 0x0 DUP3 PUSH1 0x1F DUP4 ADD SLT PUSH2 0x16E JUMPI PUSH1 0x0 DUP1 REVERT JUMPDEST DUP2 CALLDATALOAD PUSH8 0xFFFFFFFFFFFFFFFF DUP1 DUP3 GT ISZERO PUSH2 0x189 JUMPI PUSH2 0x189 PUSH2 0x147 JUMP JUMPDEST PUSH1 0x40 MLOAD PUSH1 0x1F DUP4 ADD PUSH1 0x1F NOT SWAP1 DUP2 AND PUSH1 0x3F ADD AND DUP2 ADD SWAP1 DUP3 DUP3 GT DUP2 DUP4 LT OR ISZERO PUSH2 0x1B1 JUMPI PUSH2 0x1B1 PUSH2 0x147 JUMP JUMPDEST DUP2 PUSH1 0x40 MSTORE DUP4 DUP2 MSTORE DUP7 PUSH1 0x20 DUP6 DUP9 ADD ADD GT ISZERO PUSH2 0x1CA JUMPI PUSH1 0x0 DUP1 REVERT JUMPDEST DUP4 PUSH1 0x20 DUP8 ADD PUSH1 0x20 DUP4 ADD CALLDATACOPY PUSH1 0x0 PUSH1 0x20 DUP6 DUP4 ADD ADD MSTORE DUP1 SWAP5 POP POP POP POP POP SWAP3 SWAP2 POP POP JUMP JUMPDEST PUSH1 0x0 DUP1 PUSH1 0x40 DUP4 DUP6 SUB SLT ISZERO PUSH2 0x1FD JUMPI PUSH1 0x0 DUP1 REVERT JUMPDEST DUP3 CALLDATALOAD PUSH8 0xFFFFFFFFFFFFFFFF DUP2 GT ISZERO PUSH2 0x214 JUMPI PUSH1 0x0 DUP1 REVERT JUMPDEST PUSH2 0x220 DUP6 DUP3 DUP7 ADD PUSH2 0x15D JUMP JUMPDEST SWAP6 PUSH1 0x20 SWAP5 SWAP1 SWAP5 ADD CALLDATALOAD SWAP5 POP POP POP POP JUMP JUMPDEST PUSH1 0x0 PUSH1 0x20 DUP3 DUP5 SUB SLT ISZERO PUSH2 0x241 JUMPI PUSH1 0x0 DUP1 REVERT JUMPDEST DUP2 CALLDATALOAD PUSH8 0xFFFFFFFFFFFFFFFF DUP2 GT ISZERO PUSH2 0x258 JUMPI PUSH1 0x0 DUP1 REVERT JUMPDEST PUSH2 0x264 DUP5 DUP3 DUP6 ADD PUSH2 0x15D JUMP JUMPDEST SWAP5 SWAP4 POP POP POP POP JUMP JUMPDEST PUSH1 0x0 JUMPDEST DUP4 DUP2 LT ISZERO PUSH2 0x287 JUMPI DUP2 DUP2 ADD MLOAD DUP4 DUP3 ADD MSTORE PUSH1 0x20 ADD PUSH2 0x26F JUMP JUMPDEST POP POP PUSH1 0x0 SWAP2 ADD MSTORE JUMP JUMPDEST PUSH1 0x0 DUP3 MLOAD PUSH2 0x2A2 DUP2 DUP5 PUSH1 0x20 DUP8 ADD PUSH2 0x26C JUMP JUMPDEST SWAP2 SWAP1 SWAP2 ADD SWAP3 SWAP2 POP POP JUMP JUMPDEST PUSH1 0x40 DUP2 MSTORE PUSH1 0x0 DUP4 MLOAD DUP1 PUSH1 0x40 DUP5 ADD MSTORE PUSH2 0x2CB DUP2 PUSH1 0x60 DUP6 ADD PUSH1 0x20 DUP9 ADD PUSH2 0x26C JUMP JUMPDEST PUSH1 0x20 DUP4 ADD SWAP4 SWAP1 SWAP4 MSTORE POP PUSH1 0x1F SWAP2 SWAP1 SWAP2 ADD PUSH1 0x1F NOT AND ADD PUSH1 0x60 ADD SWAP2 SWAP1 POP JUMP INVALID LOG2 PUSH5 0x6970667358 0x22 SLT KECCAK256 0x4E NOT 0x29 DUP10 0xE8 0xBB COINBASE SWAP7 0xF SHL CODESIZE 0xF8 0xC GT 0xC CALLDATACOPY BLOCKHASH SHL 0xFB 0x26 0x4D 0xFB 0xE6 ORIGIN 0xE5 PUSH20 0x3CCC6E53DFD464736F6C63430008130033000000 "},"methodIdentifiers":{"certificates(string)":"8f2b91ea","issueCertificate(string,bytes32)":"62c985c3","verifyCertificate(string,bytes32)":"07b86b73"}}}}}