{
  "_format": "hh-sol-artifact-1",
  "contractName": "Certificate",
  "sourceName": "contracts/Certificate.sol",
  "abi": [
    {
      "anonymous": false,
      "inputs": [
        {
          "indexed": false,
          "internalType": "string",
          "name": "certificateId",
          "type": "string"
        },
        {
          "indexed": false,
          "internalType": "bytes32",
          "name": "certificateHash",
          "type": "bytes32"
        }
      ],
      "name": "CertificateIssued",
      "type": "event"
    },
    {
      "inputs": [
        {
          "internalType": "string",
          "name": "",
          "type": "string"
        }
      ],
      "name": "certificates",
      "outputs": [
        {
          "internalType": "bytes32",
          "name": "",
          "type": "bytes32"
        }
      ],
      "stateMutability": "view",
      "type": "function"
    },
    {
      "inputs": [
        {
          "internalType": "string",
          "name": "certificateId",
          "type": "string"
        },
        {
          "internalType": "bytes32",
          "name": "certificateHash",
          "type": "bytes32"
        }
      ],
      "name": "issueCertificate",
      "outputs": [],
      "stateMutability": "nonpayable",
      "type": "function"
    },
    {
      "inputs": [
        {
          "internalType": "string",
          "name": "certificateId",
          "type": "string"
        },
        {
          "internalType": "bytes32",
          "name": "certificateHash",
          "type": "bytes32"
        }
      ],
      "name": "verifyCertificate",
      "outputs": [
        {
          "internalType": "bool",
          "name": "",
          "type": "bool"
        }
      ],
      "stateMutability": "view",
      "type": "function"
    }
  ],
  "bytecode": "0x608060405234801561001057600080fd5b50610380806100206000396000f3fe608060405234801561001057600080fd5b50600436106100415760003560e01c806307b86b731461004657806362c985c31461006e5780638f2b91ea14610083575b600080fd5b6100596100543660046101c2565b6100bc565b60405190151581526020015b60405180910390f35b61008161007c3660046101c2565b6100ea565b005b6100ae610091366004610250565b805160208183018101805160008252928201919093012091525481565b604051908152602001610065565b600081600085856040516100d1929190610301565b9081526020016040518091039020541490509392505050565b600083836040516100fc929190610301565b908152604051908190036020019020541561015d5760405162461bcd60e51b815260206004820152601a60248201527f436572746966696361746520616c726561647920657869737473000000000000604482015260640160405180910390fd5b8060008484604051610170929190610301565b9081526020016040518091039020819055507fc1255beb592123a69dbf68648642ecc5fca6e86afc2fd709b8173c8d831b03d28383836040516101b593929190610311565b60405180910390a1505050565b6000806000604084860312156101d757600080fd5b833567ffffffffffffffff808211156101ef57600080fd5b818601915086601f83011261020357600080fd5b81358181111561021257600080fd5b87602082850101111561022457600080fd5b6020928301989097509590910135949350505050565b634e487b7160e01b600052604160045260246000fd5b60006020828403121561026257600080fd5b813567ffffffffffffffff8082111561027a57600080fd5b818401915084601f83011261028e57600080fd5b8135818111156102a0576102a061023a565b604051601f8201601f19908116603f011681019083821181831017156102c8576102c861023a565b816040528281528760208487010111156102e157600080fd5b826020860160208301376000928101602001929092525095945050505050565b8183823760009101908152919050565b604081528260408201528284606083013760006060848301015260006060601f19601f860116830101905082602083015294935050505056fea264697066735822122055c04d35de06b67e6ee1e53ff409d18e54bc93f84509cfbc6ffe12a91c95381b64736f6c63430008130033",
  "linkReferences": {},
  "deployedLinkReferences": {}
}