{
    "_format": "hh-sol-artifact-1",
    "contractName": "Certificate",
    "sourceName": "contracts/Certificate.sol",
    "abi": [
        {
            "inputs": [
                {
                    "internalType": "string",
                    "name": "",
                    "type": "string"
                }
            ],
            "name": "certificates",
            "outputs": [
                {
                    "internalType": "bool",
                    "name": "",
                    "type": "bool"
                }
            ],
            "stateMutability": "view",
            "type": "function"
        },
        {
            "inputs": [
                {
                    "internalType": "string",
                    "name": "_id",
                    "type": "string"
                }
            ],
            "name": "issueCertificate",
            "outputs": [],
            "stateMutability": "nonpayable",
            "type": "function"
        },
        {
            "inputs": [
                {
                    "internalType": "string",
                    "name": "_id",
                    "type": "string"
                }
            ],
            "name": "verifyCertificate",
            "outputs": [
                {
                    "internalType": "bool",
                    "name": "",
                    "type": "bool"
                }
            ],
            "stateMutability": "view",
            "type": "function"
        }
    ],
    "bytecode": "0x608060405234801561001057600080fd5b506103fd806100206000396000f3fe608060405234801561001057600080fd5b50600436106100415760003560e01c80638b23d875146100465780638f2b91ea14610076578063a90547a6146100a6575b600080fd5b610060600480360381019061005b91906102c0565b6100c2565b60405161006d9190610324565b60405180910390f35b610090600480360381019061008b91906102c0565b6100f6565b60405161009d9190610324565b60405180910390f35b6100c060048036038101906100bb91906102c0565b61012c565b005b600080826040516100d391906103b0565b908152602001604051809103902060009054906101000a900460ff169050919050565b6000818051602081018201805184825260208301602085012081835280955050505050506000915054906101000a900460ff1681565b600160008260405161013e91906103b0565b908152602001604051809103902060006101000a81548160ff02191690831515021790555050565b6000604051905090565b600080fd5b600080fd5b600080fd5b600080fd5b6000601f19601f8301169050919050565b7f4e487b7100000000000000000000000000000000000000000000000000000000600052604160045260246000fd5b6101cd82610184565b810181811067ffffffffffffffff821117156101ec576101eb610195565b5b80604052505050565b60006101ff610166565b905061020b82826101c4565b919050565b600067ffffffffffffffff82111561022b5761022a610195565b5b61023482610184565b9050602081019050919050565b82818337600083830152505050565b600061026361025e84610210565b6101f5565b90508281526020810184848401111561027f5761027e61017f565b5b61028a848285610241565b509392505050565b600082601f8301126102a7576102a661017a565b5b81356102b7848260208601610250565b91505092915050565b6000602082840312156102d6576102d5610170565b5b600082013567ffffffffffffffff8111156102f4576102f3610175565b5b61030084828501610292565b91505092915050565b60008115159050919050565b61031e81610309565b82525050565b60006020820190506103396000830184610315565b92915050565b600081519050919050565b600081905092915050565b60005b83811015610373578082015181840152602081019050610358565b60008484015250505050565b600061038a8261033f565b610394818561034a565b93506103a4818560208601610355565b80840191505092915050565b60006103bc828461037f565b91508190509291505056fea2646970667358221220c040f66a8d6c9b90dc7c231081fea8592916b37e2f3d19c60734593daa3439fc64736f6c63430008130033",
    "linkReferences": {},
    "deployedLinkReferences": {}
}